{
  "_format": "hh-sol-artifact-1",
  "contractName": "Adessi",
  "sourceName": "contracts/Adessi.sol",
  "abi": [
    {
      "inputs": [],
      "stateMutability": "nonpayable",
      "type": "constructor"
    },
    {
      "anonymous": false,
      "inputs": [
        {
          "indexed": false,
          "internalType": "uint256",
          "name": "tokenId",
          "type": "uint256"
        },
        {
          "indexed": false,
          "internalType": "address",
          "name": "owner",
          "type": "address"
        }
      ],
      "name": "AdessiMinted",
      "type": "event"
    },
    {
      "anonymous": false,
      "inputs": [
        {
          "indexed": true,
          "internalType": "address",
          "name": "owner",
          "type": "address"
        },
        {
          "indexed": true,
          "internalType": "address",
          "name": "approved",
          "type": "address"
        },
        {
          "indexed": true,
          "internalType": "uint256",
          "name": "tokenId",
          "type": "uint256"
        }
      ],
      "name": "Approval",
      "type": "event"
    },
    {
      "anonymous": false,
      "inputs": [
        {
          "indexed": true,
          "internalType": "address",
          "name": "owner",
          "type": "address"
        },
        {
          "indexed": true,
          "internalType": "address",
          "name": "operator",
          "type": "address"
        },
        {
          "indexed": false,
          "internalType": "bool",
          "name": "approved",
          "type": "bool"
        }
      ],
      "name": "ApprovalForAll",
      "type": "event"
    },
    {
      "anonymous": false,
      "inputs": [
        {
          "indexed": true,
          "internalType": "address",
          "name": "previousOwner",
          "type": "address"
        },
        {
          "indexed": true,
          "internalType": "address",
          "name": "newOwner",
          "type": "address"
        }
      ],
      "name": "OwnershipTransferred",
      "type": "event"
    },
    {
      "anonymous": false,
      "inputs": [
        {
          "indexed": true,
          "internalType": "address",
          "name": "from",
          "type": "address"
        },
        {
          "indexed": true,
          "internalType": "address",
          "name": "to",
          "type": "address"
        },
        {
          "indexed": true,
          "internalType": "uint256",
          "name": "tokenId",
          "type": "uint256"
        }
      ],
      "name": "Transfer",
      "type": "event"
    },
    {
      "inputs": [],
      "name": "MAX_TOKENS",
      "outputs": [
        {
          "internalType": "uint256",
          "name": "",
          "type": "uint256"
        }
      ],
      "stateMutability": "view",
      "type": "function"
    },
    {
      "inputs": [
        {
          "internalType": "address[]",
          "name": "addresses",
          "type": "address[]"
        }
      ],
      "name": "addToPresaleList",
      "outputs": [],
      "stateMutability": "nonpayable",
      "type": "function"
    },
    {
      "inputs": [
        {
          "internalType": "address",
          "name": "to",
          "type": "address"
        },
        {
          "internalType": "uint256",
          "name": "tokenId",
          "type": "uint256"
        }
      ],
      "name": "approve",
      "outputs": [],
      "stateMutability": "nonpayable",
      "type": "function"
    },
    {
      "inputs": [
        {
          "internalType": "address",
          "name": "owner",
          "type": "address"
        }
      ],
      "name": "balanceOf",
      "outputs": [
        {
          "internalType": "uint256",
          "name": "",
          "type": "uint256"
        }
      ],
      "stateMutability": "view",
      "type": "function"
    },
    {
      "inputs": [],
      "name": "baseURI",
      "outputs": [
        {
          "internalType": "string",
          "name": "",
          "type": "string"
        }
      ],
      "stateMutability": "view",
      "type": "function"
    },
    {
      "inputs": [
        {
          "internalType": "uint256",
          "name": "tokenId",
          "type": "uint256"
        }
      ],
      "name": "getApproved",
      "outputs": [
        {
          "internalType": "address",
          "name": "",
          "type": "address"
        }
      ],
      "stateMutability": "view",
      "type": "function"
    },
    {
      "inputs": [
        {
          "internalType": "address",
          "name": "owner",
          "type": "address"
        },
        {
          "internalType": "address",
          "name": "operator",
          "type": "address"
        }
      ],
      "name": "isApprovedForAll",
      "outputs": [
        {
          "internalType": "bool",
          "name": "",
          "type": "bool"
        }
      ],
      "stateMutability": "view",
      "type": "function"
    },
    {
      "inputs": [],
      "name": "maxTokenPurchase",
      "outputs": [
        {
          "internalType": "uint256",
          "name": "",
          "type": "uint256"
        }
      ],
      "stateMutability": "view",
      "type": "function"
    },
    {
      "inputs": [
        {
          "internalType": "uint256",
          "name": "numberOfTokens",
          "type": "uint256"
        }
      ],
      "name": "mintAdessi",
      "outputs": [],
      "stateMutability": "payable",
      "type": "function"
    },
    {
      "inputs": [],
      "name": "name",
      "outputs": [
        {
          "internalType": "string",
          "name": "",
          "type": "string"
        }
      ],
      "stateMutability": "view",
      "type": "function"
    },
    {
      "inputs": [
        {
          "internalType": "address",
          "name": "addr",
          "type": "address"
        }
      ],
      "name": "onPreSaleList",
      "outputs": [
        {
          "internalType": "bool",
          "name": "",
          "type": "bool"
        }
      ],
      "stateMutability": "view",
      "type": "function"
    },
    {
      "inputs": [],
      "name": "owner",
      "outputs": [
        {
          "internalType": "address",
          "name": "",
          "type": "address"
        }
      ],
      "stateMutability": "view",
      "type": "function"
    },
    {
      "inputs": [
        {
          "internalType": "uint256",
          "name": "tokenId",
          "type": "uint256"
        }
      ],
      "name": "ownerOf",
      "outputs": [
        {
          "internalType": "address",
          "name": "",
          "type": "address"
        }
      ],
      "stateMutability": "view",
      "type": "function"
    },
    {
      "inputs": [
        {
          "internalType": "uint256",
          "name": "numberOfTokens",
          "type": "uint256"
        }
      ],
      "name": "presaleAdessi",
      "outputs": [],
      "stateMutability": "payable",
      "type": "function"
    },
    {
      "inputs": [],
      "name": "presaleIsActive",
      "outputs": [
        {
          "internalType": "bool",
          "name": "",
          "type": "bool"
        }
      ],
      "stateMutability": "view",
      "type": "function"
    },
    {
      "inputs": [],
      "name": "presaleMaxMint",
      "outputs": [
        {
          "internalType": "uint256",
          "name": "",
          "type": "uint256"
        }
      ],
      "stateMutability": "view",
      "type": "function"
    },
    {
      "inputs": [
        {
          "internalType": "address[]",
          "name": "addresses",
          "type": "address[]"
        }
      ],
      "name": "removeFromPresaleList",
      "outputs": [],
      "stateMutability": "nonpayable",
      "type": "function"
    },
    {
      "inputs": [],
      "name": "renounceOwnership",
      "outputs": [],
      "stateMutability": "nonpayable",
      "type": "function"
    },
    {
      "inputs": [
        {
          "internalType": "address",
          "name": "from",
          "type": "address"
        },
        {
          "internalType": "address",
          "name": "to",
          "type": "address"
        },
        {
          "internalType": "uint256",
          "name": "tokenId",
          "type": "uint256"
        }
      ],
      "name": "safeTransferFrom",
      "outputs": [],
      "stateMutability": "nonpayable",
      "type": "function"
    },
    {
      "inputs": [
        {
          "internalType": "address",
          "name": "from",
          "type": "address"
        },
        {
          "internalType": "address",
          "name": "to",
          "type": "address"
        },
        {
          "internalType": "uint256",
          "name": "tokenId",
          "type": "uint256"
        },
        {
          "internalType": "bytes",
          "name": "_data",
          "type": "bytes"
        }
      ],
      "name": "safeTransferFrom",
      "outputs": [],
      "stateMutability": "nonpayable",
      "type": "function"
    },
    {
      "inputs": [],
      "name": "saleIsActive",
      "outputs": [
        {
          "internalType": "bool",
          "name": "",
          "type": "bool"
        }
      ],
      "stateMutability": "view",
      "type": "function"
    },
    {
      "inputs": [
        {
          "internalType": "address",
          "name": "operator",
          "type": "address"
        },
        {
          "internalType": "bool",
          "name": "approved",
          "type": "bool"
        }
      ],
      "name": "setApprovalForAll",
      "outputs": [],
      "stateMutability": "nonpayable",
      "type": "function"
    },
    {
      "inputs": [
        {
          "internalType": "string",
          "name": "_newBaseURI",
          "type": "string"
        }
      ],
      "name": "setBaseURI",
      "outputs": [],
      "stateMutability": "nonpayable",
      "type": "function"
    },
    {
      "inputs": [
        {
          "internalType": "uint256",
          "name": "maxMint",
          "type": "uint256"
        }
      ],
      "name": "setPresaleMaxMint",
      "outputs": [],
      "stateMutability": "nonpayable",
      "type": "function"
    },
    {
      "inputs": [
        {
          "internalType": "bytes4",
          "name": "interfaceId",
          "type": "bytes4"
        }
      ],
      "name": "supportsInterface",
      "outputs": [
        {
          "internalType": "bool",
          "name": "",
          "type": "bool"
        }
      ],
      "stateMutability": "view",
      "type": "function"
    },
    {
      "inputs": [],
      "name": "symbol",
      "outputs": [
        {
          "internalType": "string",
          "name": "",
          "type": "string"
        }
      ],
      "stateMutability": "view",
      "type": "function"
    },
    {
      "inputs": [],
      "name": "togglePresaleState",
      "outputs": [],
      "stateMutability": "nonpayable",
      "type": "function"
    },
    {
      "inputs": [],
      "name": "toggleSaleState",
      "outputs": [],
      "stateMutability": "nonpayable",
      "type": "function"
    },
    {
      "inputs": [
        {
          "internalType": "uint256",
          "name": "index",
          "type": "uint256"
        }
      ],
      "name": "tokenByIndex",
      "outputs": [
        {
          "internalType": "uint256",
          "name": "",
          "type": "uint256"
        }
      ],
      "stateMutability": "view",
      "type": "function"
    },
    {
      "inputs": [
        {
          "internalType": "address",
          "name": "owner",
          "type": "address"
        },
        {
          "internalType": "uint256",
          "name": "index",
          "type": "uint256"
        }
      ],
      "name": "tokenOfOwnerByIndex",
      "outputs": [
        {
          "internalType": "uint256",
          "name": "",
          "type": "uint256"
        }
      ],
      "stateMutability": "view",
      "type": "function"
    },
    {
      "inputs": [],
      "name": "tokenPrice",
      "outputs": [
        {
          "internalType": "uint256",
          "name": "",
          "type": "uint256"
        }
      ],
      "stateMutability": "view",
      "type": "function"
    },
    {
      "inputs": [
        {
          "internalType": "uint256",
          "name": "tokenId",
          "type": "uint256"
        }
      ],
      "name": "tokenURI",
      "outputs": [
        {
          "internalType": "string",
          "name": "",
          "type": "string"
        }
      ],
      "stateMutability": "view",
      "type": "function"
    },
    {
      "inputs": [
        {
          "internalType": "address",
          "name": "_owner",
          "type": "address"
        }
      ],
      "name": "tokensOfOwner",
      "outputs": [
        {
          "internalType": "uint256[]",
          "name": "",
          "type": "uint256[]"
        }
      ],
      "stateMutability": "view",
      "type": "function"
    },
    {
      "inputs": [],
      "name": "totalSupply",
      "outputs": [
        {
          "internalType": "uint256",
          "name": "",
          "type": "uint256"
        }
      ],
      "stateMutability": "view",
      "type": "function"
    },
    {
      "inputs": [
        {
          "internalType": "address",
          "name": "from",
          "type": "address"
        },
        {
          "internalType": "address",
          "name": "to",
          "type": "address"
        },
        {
          "internalType": "uint256",
          "name": "tokenId",
          "type": "uint256"
        }
      ],
      "name": "transferFrom",
      "outputs": [],
      "stateMutability": "nonpayable",
      "type": "function"
    },
    {
      "inputs": [
        {
          "internalType": "address",
          "name": "newOwner",
          "type": "address"
        }
      ],
      "name": "transferOwnership",
      "outputs": [],
      "stateMutability": "nonpayable",
      "type": "function"
    },
    {
      "inputs": [],
      "name": "withdraw",
      "outputs": [],
      "stateMutability": "payable",
      "type": "function"
    }
  ],
  "bytecode": "0x6080604052604051806060016040528060358152602001620053a860359139600b90805190602001906200003592919062000213565b506000600c60006101000a81548160ff0219169083151502179055506000600c60016101000a81548160ff0219169083151502179055506002600f553480156200007e57600080fd5b506040518060400160405280600981526020017f4164657373694e657700000000000000000000000000000000000000000000008152506040518060400160405280600381526020017f4f4b52000000000000000000000000000000000000000000000000000000000081525081600090805190602001906200010392919062000213565b5080600190805190602001906200011c92919062000213565b5050506200013f620001336200014560201b60201c565b6200014d60201b60201c565b62000328565b600033905090565b6000600660009054906101000a900473ffffffffffffffffffffffffffffffffffffffff16905081600660006101000a81548173ffffffffffffffffffffffffffffffffffffffff021916908373ffffffffffffffffffffffffffffffffffffffff1602179055508173ffffffffffffffffffffffffffffffffffffffff168173ffffffffffffffffffffffffffffffffffffffff167f8be0079c531659141344cd1fd0a4f28419497f9722a3daafe3b4186f6b6457e060405160405180910390a35050565b8280546200022190620002c3565b90600052602060002090601f01602090048101928262000245576000855562000291565b82601f106200026057805160ff191683800117855562000291565b8280016001018555821562000291579182015b828111156200029057825182559160200191906001019062000273565b5b509050620002a09190620002a4565b5090565b5b80821115620002bf576000816000905550600101620002a5565b5090565b60006002820490506001821680620002dc57607f821691505b60208210811415620002f357620002f2620002f9565b5b50919050565b7f4e487b7100000000000000000000000000000000000000000000000000000000600052602260045260246000fd5b61507080620003386000396000f3fe60806040526004361061021a5760003560e01c80637204a3c911610123578063be9bae64116100ab578063eb8d24441161006f578063eb8d2444146107c9578063f285e69e146107f4578063f2eb78611461080b578063f2fde38b14610827578063f47c84c5146108505761021a565b8063be9bae64146106f3578063c87b56dd1461070f578063daaeec861461074c578063df4305d214610763578063e985e9c51461078c5761021a565b8063946ef42a116100f2578063946ef42a1461062257806395d89b411461064d578063a22cb46514610678578063b179e060146106a1578063b88d4fde146106ca5761021a565b80637204a3c9146105665780637ff9b5961461058f5780638462151c146105ba5780638da5cb5b146105f75761021a565b806330f72cd4116101a657806355f804b31161017557806355f804b3146104815780636352211e146104aa5780636c0360eb146104e757806370a0823114610512578063715018a61461054f5761021a565b806330f72cd4146103e65780633ccfd60b1461041157806342842e0e1461041b5780634f6ccce7146104445761021a565b806309aa3dcf116101ed57806309aa3dcf146102ed57806311576b791461031857806318160ddd1461035557806323b872dd146103805780632f745c59146103a95761021a565b806301ffc9a71461021f57806306fdde031461025c578063081812fc14610287578063095ea7b3146102c4575b600080fd5b34801561022b57600080fd5b506102466004803603810190610241919061390e565b61087b565b6040516102539190614006565b60405180910390f35b34801561026857600080fd5b5061027161088d565b60405161027e9190614021565b60405180910390f35b34801561029357600080fd5b506102ae60048036038101906102a991906139a1565b61091f565b6040516102bb9190613f7d565b60405180910390f35b3480156102d057600080fd5b506102eb60048036038101906102e6919061388d565b6109a4565b005b3480156102f957600080fd5b50610302610abc565b60405161030f91906143c3565b60405180910390f35b34801561032457600080fd5b5061033f600480360381019061033a9190613722565b610ac1565b60405161034c9190614006565b60405180910390f35b34801561036157600080fd5b5061036a610b17565b60405161037791906143c3565b60405180910390f35b34801561038c57600080fd5b506103a760048036038101906103a29190613787565b610b24565b005b3480156103b557600080fd5b506103d060048036038101906103cb919061388d565b610b84565b6040516103dd91906143c3565b60405180910390f35b3480156103f257600080fd5b506103fb610c29565b6040516104089190614006565b60405180910390f35b610419610c3c565b005b34801561042757600080fd5b50610442600480360381019061043d9190613787565b610d38565b005b34801561045057600080fd5b5061046b600480360381019061046691906139a1565b610d58565b60405161047891906143c3565b60405180910390f35b34801561048d57600080fd5b506104a860048036038101906104a39190613960565b610def565b005b3480156104b657600080fd5b506104d160048036038101906104cc91906139a1565b610e85565b6040516104de9190613f7d565b60405180910390f35b3480156104f357600080fd5b506104fc610f37565b6040516105099190614021565b60405180910390f35b34801561051e57600080fd5b5061053960048036038101906105349190613722565b610fc5565b60405161054691906143c3565b60405180910390f35b34801561055b57600080fd5b5061056461107d565b005b34801561057257600080fd5b5061058d600480360381019061058891906138c9565b611105565b005b34801561059b57600080fd5b506105a4611309565b6040516105b191906143c3565b60405180910390f35b3480156105c657600080fd5b506105e160048036038101906105dc9190613722565b611314565b6040516105ee9190613fe4565b60405180910390f35b34801561060357600080fd5b5061060c611490565b6040516106199190613f7d565b60405180910390f35b34801561062e57600080fd5b506106376114ba565b60405161064491906143c3565b60405180910390f35b34801561065957600080fd5b506106626114c0565b60405161066f9190614021565b60405180910390f35b34801561068457600080fd5b5061069f600480360381019061069a9190613851565b611552565b005b3480156106ad57600080fd5b506106c860048036038101906106c391906138c9565b6116d3565b005b3480156106d657600080fd5b506106f160048036038101906106ec91906137d6565b6118d7565b005b61070d600480360381019061070891906139a1565b611939565b005b34801561071b57600080fd5b50610736600480360381019061073191906139a1565b611ca1565b6040516107439190614021565b60405180910390f35b34801561075857600080fd5b50610761611d48565b005b34801561076f57600080fd5b5061078a600480360381019061078591906139a1565b611df0565b005b34801561079857600080fd5b506107b360048036038101906107ae919061374b565b611e76565b6040516107c09190614006565b60405180910390f35b3480156107d557600080fd5b506107de611f0a565b6040516107eb9190614006565b60405180910390f35b34801561080057600080fd5b50610809611f1d565b005b610825600480360381019061082091906139a1565b611fc5565b005b34801561083357600080fd5b5061084e60048036038101906108499190613722565b6121b3565b005b34801561085c57600080fd5b506108656122ab565b60405161087291906143c3565b60405180910390f35b6000610886826122b0565b9050919050565b60606000805461089c906146e0565b80601f01602080910402602001604051908101604052809291908181526020018280546108c8906146e0565b80156109155780601f106108ea57610100808354040283529160200191610915565b820191906000526020600020905b8154815290600101906020018083116108f857829003601f168201915b5050505050905090565b600061092a8261232a565b610969576040517f08c379a000000000000000000000000000000000000000000000000000000000815260040161096090614243565b60405180910390fd5b6004600083815260200190815260200160002060009054906101000a900473ffffffffffffffffffffffffffffffffffffffff169050919050565b60006109af82610e85565b90508073ffffffffffffffffffffffffffffffffffffffff168373ffffffffffffffffffffffffffffffffffffffff161415610a20576040517f08c379a0000000000000000000000000000000000000000000000000000000008152600401610a1790614303565b60405180910390fd5b8073ffffffffffffffffffffffffffffffffffffffff16610a3f612396565b73ffffffffffffffffffffffffffffffffffffffff161480610a6e5750610a6d81610a68612396565b611e76565b5b610aad576040517f08c379a0000000000000000000000000000000000000000000000000000000008152600401610aa4906141a3565b60405180910390fd5b610ab7838361239e565b505050565b600281565b6000600d60008373ffffffffffffffffffffffffffffffffffffffff1673ffffffffffffffffffffffffffffffffffffffff16815260200190815260200160002060009054906101000a900460ff169050919050565b6000600980549050905090565b610b35610b2f612396565b82612457565b610b74576040517f08c379a0000000000000000000000000000000000000000000000000000000008152600401610b6b90614323565b60405180910390fd5b610b7f838383612535565b505050565b6000610b8f83610fc5565b8210610bd0576040517f08c379a0000000000000000000000000000000000000000000000000000000008152600401610bc790614063565b60405180910390fd5b600760008473ffffffffffffffffffffffffffffffffffffffff1673ffffffffffffffffffffffffffffffffffffffff168152602001908152602001600020600083815260200190815260200160002054905092915050565b600c60019054906101000a900460ff1681565b610c44612396565b73ffffffffffffffffffffffffffffffffffffffff16610c62611490565b73ffffffffffffffffffffffffffffffffffffffff1614610cb8576040517f08c379a0000000000000000000000000000000000000000000000000000000008152600401610caf90614263565b60405180910390fd5b6000610cc2611490565b73ffffffffffffffffffffffffffffffffffffffff1647604051610ce590613f68565b60006040518083038185875af1925050503d8060008114610d22576040519150601f19603f3d011682016040523d82523d6000602084013e610d27565b606091505b5050905080610d3557600080fd5b50565b610d53838383604051806020016040528060008152506118d7565b505050565b6000610d62610b17565b8210610da3576040517f08c379a0000000000000000000000000000000000000000000000000000000008152600401610d9a90614343565b60405180910390fd5b60098281548110610ddd577f4e487b7100000000000000000000000000000000000000000000000000000000600052603260045260246000fd5b90600052602060002001549050919050565b610df7612396565b73ffffffffffffffffffffffffffffffffffffffff16610e15611490565b73ffffffffffffffffffffffffffffffffffffffff1614610e6b576040517f08c379a0000000000000000000000000000000000000000000000000000000008152600401610e6290614263565b60405180910390fd5b80600b9080519060200190610e819291906134fc565b5050565b6000806002600084815260200190815260200160002060009054906101000a900473ffffffffffffffffffffffffffffffffffffffff169050600073ffffffffffffffffffffffffffffffffffffffff168173ffffffffffffffffffffffffffffffffffffffff161415610f2e576040517f08c379a0000000000000000000000000000000000000000000000000000000008152600401610f25906141e3565b60405180910390fd5b80915050919050565b600b8054610f44906146e0565b80601f0160208091040260200160405190810160405280929190818152602001828054610f70906146e0565b8015610fbd5780601f10610f9257610100808354040283529160200191610fbd565b820191906000526020600020905b815481529060010190602001808311610fa057829003601f168201915b505050505081565b60008073ffffffffffffffffffffffffffffffffffffffff168273ffffffffffffffffffffffffffffffffffffffff161415611036576040517f08c379a000000000000000000000000000000000000000000000000000000000815260040161102d906141c3565b60405180910390fd5b600360008373ffffffffffffffffffffffffffffffffffffffff1673ffffffffffffffffffffffffffffffffffffffff168152602001908152602001600020549050919050565b611085612396565b73ffffffffffffffffffffffffffffffffffffffff166110a3611490565b73ffffffffffffffffffffffffffffffffffffffff16146110f9576040517f08c379a00000000000000000000000000000000000000000000000000000000081526004016110f090614263565b60405180910390fd5b6111036000612791565b565b61110d612396565b73ffffffffffffffffffffffffffffffffffffffff1661112b611490565b73ffffffffffffffffffffffffffffffffffffffff1614611181576040517f08c379a000000000000000000000000000000000000000000000000000000000815260040161117890614263565b60405180910390fd5b60005b8282905081101561130457600073ffffffffffffffffffffffffffffffffffffffff168383838181106111e0577f4e487b7100000000000000000000000000000000000000000000000000000000600052603260045260246000fd5b90506020020160208101906111f59190613722565b73ffffffffffffffffffffffffffffffffffffffff16141561124c576040517f08c379a000000000000000000000000000000000000000000000000000000000815260040161124390614283565b60405180910390fd5b6001600d600085858581811061128b577f4e487b7100000000000000000000000000000000000000000000000000000000600052603260045260246000fd5b90506020020160208101906112a09190613722565b73ffffffffffffffffffffffffffffffffffffffff1673ffffffffffffffffffffffffffffffffffffffff16815260200190815260200160002060006101000a81548160ff02191690831515021790555080806112fc90614743565b915050611184565b505050565b6605543df729c00081565b6060600061132183610fc5565b905060008114156113a457600067ffffffffffffffff81111561136d577f4e487b7100000000000000000000000000000000000000000000000000000000600052604160045260246000fd5b60405190808252806020026020018201604052801561139b5781602001602082028036833780820191505090505b5091505061148b565b60008167ffffffffffffffff8111156113e6577f4e487b7100000000000000000000000000000000000000000000000000000000600052604160045260246000fd5b6040519080825280602002602001820160405280156114145781602001602082028036833780820191505090505b50905060005b828110156114845761142c8582610b84565b828281518110611465577f4e487b7100000000000000000000000000000000000000000000000000000000600052603260045260246000fd5b602002602001018181525050808061147c90614743565b91505061141a565b8193505050505b919050565b6000600660009054906101000a900473ffffffffffffffffffffffffffffffffffffffff16905090565b600f5481565b6060600180546114cf906146e0565b80601f01602080910402602001604051908101604052809291908181526020018280546114fb906146e0565b80156115485780601f1061151d57610100808354040283529160200191611548565b820191906000526020600020905b81548152906001019060200180831161152b57829003601f168201915b5050505050905090565b61155a612396565b73ffffffffffffffffffffffffffffffffffffffff168273ffffffffffffffffffffffffffffffffffffffff1614156115c8576040517f08c379a00000000000000000000000000000000000000000000000000000000081526004016115bf90614143565b60405180910390fd5b80600560006115d5612396565b73ffffffffffffffffffffffffffffffffffffffff1673ffffffffffffffffffffffffffffffffffffffff16815260200190815260200160002060008473ffffffffffffffffffffffffffffffffffffffff1673ffffffffffffffffffffffffffffffffffffffff16815260200190815260200160002060006101000a81548160ff0219169083151502179055508173ffffffffffffffffffffffffffffffffffffffff16611682612396565b73ffffffffffffffffffffffffffffffffffffffff167f17307eab39ab6107e8899845ad3d59bd9653f200f220920489ca2b5937696c31836040516116c79190614006565b60405180910390a35050565b6116db612396565b73ffffffffffffffffffffffffffffffffffffffff166116f9611490565b73ffffffffffffffffffffffffffffffffffffffff161461174f576040517f08c379a000000000000000000000000000000000000000000000000000000000815260040161174690614263565b60405180910390fd5b60005b828290508110156118d257600073ffffffffffffffffffffffffffffffffffffffff168383838181106117ae577f4e487b7100000000000000000000000000000000000000000000000000000000600052603260045260246000fd5b90506020020160208101906117c39190613722565b73ffffffffffffffffffffffffffffffffffffffff16141561181a576040517f08c379a000000000000000000000000000000000000000000000000000000000815260040161181190614283565b60405180910390fd5b6000600d6000858585818110611859577f4e487b7100000000000000000000000000000000000000000000000000000000600052603260045260246000fd5b905060200201602081019061186e9190613722565b73ffffffffffffffffffffffffffffffffffffffff1673ffffffffffffffffffffffffffffffffffffffff16815260200190815260200160002060006101000a81548160ff02191690831515021790555080806118ca90614743565b915050611752565b505050565b6118e86118e2612396565b83612457565b611927576040517f08c379a000000000000000000000000000000000000000000000000000000000815260040161191e90614323565b60405180910390fd5b61193384848484612857565b50505050565b600c60019054906101000a900460ff16611988576040517f08c379a000000000000000000000000000000000000000000000000000000000815260040161197f90614363565b60405180910390fd5b600d60003373ffffffffffffffffffffffffffffffffffffffff1673ffffffffffffffffffffffffffffffffffffffff16815260200190815260200160002060009054906101000a900460ff16611a14576040517f08c379a0000000000000000000000000000000000000000000000000000000008152600401611a0b906140e3565b60405180910390fd5b6032611a3082611a22610b17565b6128b390919063ffffffff16565b1115611a71576040517f08c379a0000000000000000000000000000000000000000000000000000000008152600401611a68906142a3565b60405180910390fd5b600081118015611a835750600f548111155b611ac2576040517f08c379a0000000000000000000000000000000000000000000000000000000008152600401611ab9906143a3565b60405180910390fd5b600f54611b1782600e60003373ffffffffffffffffffffffffffffffffffffffff1673ffffffffffffffffffffffffffffffffffffffff168152602001908152602001600020546128b390919063ffffffff16565b1115611b58576040517f08c379a0000000000000000000000000000000000000000000000000000000008152600401611b4f90614383565b60405180910390fd5b611b72816605543df729c0006128c990919063ffffffff16565b341015611bb4576040517f08c379a0000000000000000000000000000000000000000000000000000000008152600401611bab90614163565b60405180910390fd5b60005b81811015611c9d576000611bdc6001611bce610b17565b6128b390919063ffffffff16565b90506032611be8610b17565b1015611c89576001600e60003373ffffffffffffffffffffffffffffffffffffffff1673ffffffffffffffffffffffffffffffffffffffff1681526020019081526020016000206000828254611c3e9190614515565b92505081905550611c4f33826128df565b7f1421b7b8ae7031314cca9969d0c96095f3232c7bbf59fc21bb345ffe5da254528133604051611c809291906143de565b60405180910390a15b508080611c9590614743565b915050611bb7565b5050565b6060611cac8261232a565b611ceb576040517f08c379a0000000000000000000000000000000000000000000000000000000008152600401611ce2906142e3565b60405180910390fd5b6000611cf56128fd565b90506000815111611d155760405180602001604052806000815250611d40565b80611d1f8461298f565b604051602001611d30929190613f39565b6040516020818303038152906040525b915050919050565b611d50612396565b73ffffffffffffffffffffffffffffffffffffffff16611d6e611490565b73ffffffffffffffffffffffffffffffffffffffff1614611dc4576040517f08c379a0000000000000000000000000000000000000000000000000000000008152600401611dbb90614263565b60405180910390fd5b600c60009054906101000a900460ff1615600c60006101000a81548160ff021916908315150217905550565b611df8612396565b73ffffffffffffffffffffffffffffffffffffffff16611e16611490565b73ffffffffffffffffffffffffffffffffffffffff1614611e6c576040517f08c379a0000000000000000000000000000000000000000000000000000000008152600401611e6390614263565b60405180910390fd5b80600f8190555050565b6000600560008473ffffffffffffffffffffffffffffffffffffffff1673ffffffffffffffffffffffffffffffffffffffff16815260200190815260200160002060008373ffffffffffffffffffffffffffffffffffffffff1673ffffffffffffffffffffffffffffffffffffffff16815260200190815260200160002060009054906101000a900460ff16905092915050565b600c60009054906101000a900460ff1681565b611f25612396565b73ffffffffffffffffffffffffffffffffffffffff16611f43611490565b73ffffffffffffffffffffffffffffffffffffffff1614611f99576040517f08c379a0000000000000000000000000000000000000000000000000000000008152600401611f9090614263565b60405180910390fd5b600c60019054906101000a900460ff1615600c60016101000a81548160ff021916908315150217905550565b600c60009054906101000a900460ff16612014576040517f08c379a000000000000000000000000000000000000000000000000000000000815260040161200b90614103565b60405180910390fd5b600081118015612025575060028111155b612064576040517f08c379a000000000000000000000000000000000000000000000000000000000815260040161205b90614043565b60405180910390fd5b603261208082612072610b17565b6128b390919063ffffffff16565b11156120c1576040517f08c379a00000000000000000000000000000000000000000000000000000000081526004016120b890614203565b60405180910390fd5b6120db816605543df729c0006128c990919063ffffffff16565b34101561211d576040517f08c379a000000000000000000000000000000000000000000000000000000000815260040161211490614163565b60405180910390fd5b60005b818110156121af5760006121456001612137610b17565b6128b390919063ffffffff16565b90506032612151610b17565b101561219b5761216133826128df565b7f1421b7b8ae7031314cca9969d0c96095f3232c7bbf59fc21bb345ffe5da2545281336040516121929291906143de565b60405180910390a15b5080806121a790614743565b915050612120565b5050565b6121bb612396565b73ffffffffffffffffffffffffffffffffffffffff166121d9611490565b73ffffffffffffffffffffffffffffffffffffffff161461222f576040517f08c379a000000000000000000000000000000000000000000000000000000000815260040161222690614263565b60405180910390fd5b600073ffffffffffffffffffffffffffffffffffffffff168173ffffffffffffffffffffffffffffffffffffffff16141561229f576040517f08c379a0000000000000000000000000000000000000000000000000000000008152600401612296906140a3565b60405180910390fd5b6122a881612791565b50565b603281565b60007f780e9d63000000000000000000000000000000000000000000000000000000007bffffffffffffffffffffffffffffffffffffffffffffffffffffffff1916827bffffffffffffffffffffffffffffffffffffffffffffffffffffffff19161480612323575061232282612b3c565b5b9050919050565b60008073ffffffffffffffffffffffffffffffffffffffff166002600084815260200190815260200160002060009054906101000a900473ffffffffffffffffffffffffffffffffffffffff1673ffffffffffffffffffffffffffffffffffffffff1614159050919050565b600033905090565b816004600083815260200190815260200160002060006101000a81548173ffffffffffffffffffffffffffffffffffffffff021916908373ffffffffffffffffffffffffffffffffffffffff160217905550808273ffffffffffffffffffffffffffffffffffffffff1661241183610e85565b73ffffffffffffffffffffffffffffffffffffffff167f8c5be1e5ebec7d5bd14f71427d1e84f3dd0314c0f7b2291e5b200ac8c7c3b92560405160405180910390a45050565b60006124628261232a565b6124a1576040517f08c379a000000000000000000000000000000000000000000000000000000000815260040161249890614183565b60405180910390fd5b60006124ac83610e85565b90508073ffffffffffffffffffffffffffffffffffffffff168473ffffffffffffffffffffffffffffffffffffffff16148061251b57508373ffffffffffffffffffffffffffffffffffffffff166125038461091f565b73ffffffffffffffffffffffffffffffffffffffff16145b8061252c575061252b8185611e76565b5b91505092915050565b8273ffffffffffffffffffffffffffffffffffffffff1661255582610e85565b73ffffffffffffffffffffffffffffffffffffffff16146125ab576040517f08c379a00000000000000000000000000000000000000000000000000000000081526004016125a2906142c3565b60405180910390fd5b600073ffffffffffffffffffffffffffffffffffffffff168273ffffffffffffffffffffffffffffffffffffffff16141561261b576040517f08c379a000000000000000000000000000000000000000000000000000000000815260040161261290614123565b60405180910390fd5b612626838383612c1e565b61263160008261239e565b6001600360008573ffffffffffffffffffffffffffffffffffffffff1673ffffffffffffffffffffffffffffffffffffffff168152602001908152602001600020600082825461268191906145f6565b925050819055506001600360008473ffffffffffffffffffffffffffffffffffffffff1673ffffffffffffffffffffffffffffffffffffffff16815260200190815260200160002060008282546126d89190614515565b92505081905550816002600083815260200190815260200160002060006101000a81548173ffffffffffffffffffffffffffffffffffffffff021916908373ffffffffffffffffffffffffffffffffffffffff160217905550808273ffffffffffffffffffffffffffffffffffffffff168473ffffffffffffffffffffffffffffffffffffffff167fddf252ad1be2c89b69c2b068fc378daa952ba7f163c4a11628f55a4df523b3ef60405160405180910390a4505050565b6000600660009054906101000a900473ffffffffffffffffffffffffffffffffffffffff16905081600660006101000a81548173ffffffffffffffffffffffffffffffffffffffff021916908373ffffffffffffffffffffffffffffffffffffffff1602179055508173ffffffffffffffffffffffffffffffffffffffff168173ffffffffffffffffffffffffffffffffffffffff167f8be0079c531659141344cd1fd0a4f28419497f9722a3daafe3b4186f6b6457e060405160405180910390a35050565b612862848484612535565b61286e84848484612c2e565b6128ad576040517f08c379a00000000000000000000000000000000000000000000000000000000081526004016128a490614083565b60405180910390fd5b50505050565b600081836128c19190614515565b905092915050565b600081836128d7919061459c565b905092915050565b6128f9828260405180602001604052806000815250612dc5565b5050565b6060600b805461290c906146e0565b80601f0160208091040260200160405190810160405280929190818152602001828054612938906146e0565b80156129855780601f1061295a57610100808354040283529160200191612985565b820191906000526020600020905b81548152906001019060200180831161296857829003601f168201915b5050505050905090565b606060008214156129d7576040518060400160405280600181526020017f30000000000000000000000000000000000000000000000000000000000000008152509050612b37565b600082905060005b60008214612a095780806129f290614743565b915050600a82612a02919061456b565b91506129df565b60008167ffffffffffffffff811115612a4b577f4e487b7100000000000000000000000000000000000000000000000000000000600052604160045260246000fd5b6040519080825280601f01601f191660200182016040528015612a7d5781602001600182028036833780820191505090505b5090505b60008514612b3057600182612a9691906145f6565b9150600a85612aa5919061478c565b6030612ab19190614515565b60f81b818381518110612aed577f4e487b7100000000000000000000000000000000000000000000000000000000600052603260045260246000fd5b60200101907effffffffffffffffffffffffffffffffffffffffffffffffffffffffffffff1916908160001a905350600a85612b29919061456b565b9450612a81565b8093505050505b919050565b60007f80ac58cd000000000000000000000000000000000000000000000000000000007bffffffffffffffffffffffffffffffffffffffffffffffffffffffff1916827bffffffffffffffffffffffffffffffffffffffffffffffffffffffff19161480612c0757507f5b5e139f000000000000000000000000000000000000000000000000000000007bffffffffffffffffffffffffffffffffffffffffffffffffffffffff1916827bffffffffffffffffffffffffffffffffffffffffffffffffffffffff1916145b80612c175750612c1682612e20565b5b9050919050565b612c29838383612e8a565b505050565b6000612c4f8473ffffffffffffffffffffffffffffffffffffffff16612f9e565b15612db8578373ffffffffffffffffffffffffffffffffffffffff1663150b7a02612c78612396565b8786866040518563ffffffff1660e01b8152600401612c9a9493929190613f98565b602060405180830381600087803b158015612cb457600080fd5b505af1925050508015612ce557506040513d601f19601f82011682018060405250810190612ce29190613937565b60015b612d68573d8060008114612d15576040519150601f19603f3d011682016040523d82523d6000602084013e612d1a565b606091505b50600081511415612d60576040517f08c379a0000000000000000000000000000000000000000000000000000000008152600401612d5790614083565b60405180910390fd5b805181602001fd5b63150b7a0260e01b7bffffffffffffffffffffffffffffffffffffffffffffffffffffffff1916817bffffffffffffffffffffffffffffffffffffffffffffffffffffffff191614915050612dbd565b600190505b949350505050565b612dcf8383612fb1565b612ddc6000848484612c2e565b612e1b576040517f08c379a0000000000000000000000000000000000000000000000000000000008152600401612e1290614083565b60405180910390fd5b505050565b60007f01ffc9a7000000000000000000000000000000000000000000000000000000007bffffffffffffffffffffffffffffffffffffffffffffffffffffffff1916827bffffffffffffffffffffffffffffffffffffffffffffffffffffffff1916149050919050565b612e9583838361317f565b600073ffffffffffffffffffffffffffffffffffffffff168373ffffffffffffffffffffffffffffffffffffffff161415612ed857612ed381613184565b612f17565b8173ffffffffffffffffffffffffffffffffffffffff168373ffffffffffffffffffffffffffffffffffffffff1614612f1657612f1583826131cd565b5b5b600073ffffffffffffffffffffffffffffffffffffffff168273ffffffffffffffffffffffffffffffffffffffff161415612f5a57612f558161333a565b612f99565b8273ffffffffffffffffffffffffffffffffffffffff168273ffffffffffffffffffffffffffffffffffffffff1614612f9857612f97828261347d565b5b5b505050565b600080823b905060008111915050919050565b600073ffffffffffffffffffffffffffffffffffffffff168273ffffffffffffffffffffffffffffffffffffffff161415613021576040517f08c379a000000000000000000000000000000000000000000000000000000000815260040161301890614223565b60405180910390fd5b61302a8161232a565b1561306a576040517f08c379a0000000000000000000000000000000000000000000000000000000008152600401613061906140c3565b60405180910390fd5b61307660008383612c1e565b6001600360008473ffffffffffffffffffffffffffffffffffffffff1673ffffffffffffffffffffffffffffffffffffffff16815260200190815260200160002060008282546130c69190614515565b92505081905550816002600083815260200190815260200160002060006101000a81548173ffffffffffffffffffffffffffffffffffffffff021916908373ffffffffffffffffffffffffffffffffffffffff160217905550808273ffffffffffffffffffffffffffffffffffffffff16600073ffffffffffffffffffffffffffffffffffffffff167fddf252ad1be2c89b69c2b068fc378daa952ba7f163c4a11628f55a4df523b3ef60405160405180910390a45050565b505050565b600980549050600a600083815260200190815260200160002081905550600981908060018154018082558091505060019003906000526020600020016000909190919091505550565b600060016131da84610fc5565b6131e491906145f6565b90506000600860008481526020019081526020016000205490508181146132c9576000600760008673ffffffffffffffffffffffffffffffffffffffff1673ffffffffffffffffffffffffffffffffffffffff168152602001908152602001600020600084815260200190815260200160002054905080600760008773ffffffffffffffffffffffffffffffffffffffff1673ffffffffffffffffffffffffffffffffffffffff168152602001908152602001600020600084815260200190815260200160002081905550816008600083815260200190815260200160002081905550505b6008600084815260200190815260200160002060009055600760008573ffffffffffffffffffffffffffffffffffffffff1673ffffffffffffffffffffffffffffffffffffffff16815260200190815260200160002060008381526020019081526020016000206000905550505050565b6000600160098054905061334e91906145f6565b90506000600a60008481526020019081526020016000205490506000600983815481106133a4577f4e487b7100000000000000000000000000000000000000000000000000000000600052603260045260246000fd5b9060005260206000200154905080600983815481106133ec577f4e487b7100000000000000000000000000000000000000000000000000000000600052603260045260246000fd5b906000526020600020018190555081600a600083815260200190815260200160002081905550600a6000858152602001908152602001600020600090556009805480613461577f4e487b7100000000000000000000000000000000000000000000000000000000600052603160045260246000fd5b6001900381819060005260206000200160009055905550505050565b600061348883610fc5565b905081600760008573ffffffffffffffffffffffffffffffffffffffff1673ffffffffffffffffffffffffffffffffffffffff168152602001908152602001600020600083815260200190815260200160002081905550806008600084815260200190815260200160002081905550505050565b828054613508906146e0565b90600052602060002090601f01602090048101928261352a5760008555613571565b82601f1061354357805160ff1916838001178555613571565b82800160010185558215613571579182015b82811115613570578251825591602001919060010190613555565b5b50905061357e9190613582565b5090565b5b8082111561359b576000816000905550600101613583565b5090565b60006135b26135ad8461442c565b614407565b9050828152602081018484840111156135ca57600080fd5b6135d584828561469e565b509392505050565b60006135f06135eb8461445d565b614407565b90508281526020810184848401111561360857600080fd5b61361384828561469e565b509392505050565b60008135905061362a81614fde565b92915050565b60008083601f84011261364257600080fd5b8235905067ffffffffffffffff81111561365b57600080fd5b60208301915083602082028301111561367357600080fd5b9250929050565b60008135905061368981614ff5565b92915050565b60008135905061369e8161500c565b92915050565b6000815190506136b38161500c565b92915050565b600082601f8301126136ca57600080fd5b81356136da84826020860161359f565b91505092915050565b600082601f8301126136f457600080fd5b81356137048482602086016135dd565b91505092915050565b60008135905061371c81615023565b92915050565b60006020828403121561373457600080fd5b60006137428482850161361b565b91505092915050565b6000806040838503121561375e57600080fd5b600061376c8582860161361b565b925050602061377d8582860161361b565b9150509250929050565b60008060006060848603121561379c57600080fd5b60006137aa8682870161361b565b93505060206137bb8682870161361b565b92505060406137cc8682870161370d565b9150509250925092565b600080600080608085870312156137ec57600080fd5b60006137fa8782880161361b565b945050602061380b8782880161361b565b935050604061381c8782880161370d565b925050606085013567ffffffffffffffff81111561383957600080fd5b613845878288016136b9565b91505092959194509250565b6000806040838503121561386457600080fd5b60006138728582860161361b565b92505060206138838582860161367a565b9150509250929050565b600080604083850312156138a057600080fd5b60006138ae8582860161361b565b92505060206138bf8582860161370d565b9150509250929050565b600080602083850312156138dc57600080fd5b600083013567ffffffffffffffff8111156138f657600080fd5b61390285828601613630565b92509250509250929050565b60006020828403121561392057600080fd5b600061392e8482850161368f565b91505092915050565b60006020828403121561394957600080fd5b6000613957848285016136a4565b91505092915050565b60006020828403121561397257600080fd5b600082013567ffffffffffffffff81111561398c57600080fd5b613998848285016136e3565b91505092915050565b6000602082840312156139b357600080fd5b60006139c18482850161370d565b91505092915050565b60006139d68383613f1b565b60208301905092915050565b6139eb8161462a565b82525050565b60006139fc8261449e565b613a0681856144cc565b9350613a118361448e565b8060005b83811015613a42578151613a2988826139ca565b9750613a34836144bf565b925050600181019050613a15565b5085935050505092915050565b613a588161463c565b82525050565b6000613a69826144a9565b613a7381856144dd565b9350613a838185602086016146ad565b613a8c81614879565b840191505092915050565b6000613aa2826144b4565b613aac81856144f9565b9350613abc8185602086016146ad565b613ac581614879565b840191505092915050565b6000613adb826144b4565b613ae5818561450a565b9350613af58185602086016146ad565b80840191505092915050565b6000613b0e602a836144f9565b9150613b198261488a565b604082019050919050565b6000613b31602b836144f9565b9150613b3c826148d9565b604082019050919050565b6000613b546032836144f9565b9150613b5f82614928565b604082019050919050565b6000613b776026836144f9565b9150613b8282614977565b604082019050919050565b6000613b9a601c836144f9565b9150613ba5826149c6565b602082019050919050565b6000613bbd601f836144f9565b9150613bc8826149ef565b602082019050919050565b6000613be06021836144f9565b9150613beb82614a18565b604082019050919050565b6000613c036024836144f9565b9150613c0e82614a67565b604082019050919050565b6000613c266019836144f9565b9150613c3182614ab6565b602082019050919050565b6000613c49601f836144f9565b9150613c5482614adf565b602082019050919050565b6000613c6c602c836144f9565b9150613c7782614b08565b604082019050919050565b6000613c8f6038836144f9565b9150613c9a82614b57565b604082019050919050565b6000613cb2602a836144f9565b9150613cbd82614ba6565b604082019050919050565b6000613cd56029836144f9565b9150613ce082614bf5565b604082019050919050565b6000613cf8602a836144f9565b9150613d0382614c44565b604082019050919050565b6000613d1b6020836144f9565b9150613d2682614c93565b602082019050919050565b6000613d3e602c836144f9565b9150613d4982614cbc565b604082019050919050565b6000613d6160058361450a565b9150613d6c82614d0b565b600582019050919050565b6000613d846020836144f9565b9150613d8f82614d34565b602082019050919050565b6000613da7601a836144f9565b9150613db282614d5d565b602082019050919050565b6000613dca6029836144f9565b9150613dd582614d86565b604082019050919050565b6000613ded6029836144f9565b9150613df882614dd5565b604082019050919050565b6000613e10602f836144f9565b9150613e1b82614e24565b604082019050919050565b6000613e336021836144f9565b9150613e3e82614e73565b604082019050919050565b6000613e566000836144ee565b9150613e6182614ec2565b600082019050919050565b6000613e796031836144f9565b9150613e8482614ec5565b604082019050919050565b6000613e9c602c836144f9565b9150613ea782614f14565b604082019050919050565b6000613ebf6015836144f9565b9150613eca82614f63565b602082019050919050565b6000613ee2601c836144f9565b9150613eed82614f8c565b602082019050919050565b6000613f056020836144f9565b9150613f1082614fb5565b602082019050919050565b613f2481614694565b82525050565b613f3381614694565b82525050565b6000613f458285613ad0565b9150613f518284613ad0565b9150613f5c82613d54565b91508190509392505050565b6000613f7382613e49565b9150819050919050565b6000602082019050613f9260008301846139e2565b92915050565b6000608082019050613fad60008301876139e2565b613fba60208301866139e2565b613fc76040830185613f2a565b8181036060830152613fd98184613a5e565b905095945050505050565b60006020820190508181036000830152613ffe81846139f1565b905092915050565b600060208201905061401b6000830184613a4f565b92915050565b6000602082019050818103600083015261403b8184613a97565b905092915050565b6000602082019050818103600083015261405c81613b01565b9050919050565b6000602082019050818103600083015261407c81613b24565b9050919050565b6000602082019050818103600083015261409c81613b47565b9050919050565b600060208201905081810360008301526140bc81613b6a565b9050919050565b600060208201905081810360008301526140dc81613b8d565b9050919050565b600060208201905081810360008301526140fc81613bb0565b9050919050565b6000602082019050818103600083015261411c81613bd3565b9050919050565b6000602082019050818103600083015261413c81613bf6565b9050919050565b6000602082019050818103600083015261415c81613c19565b9050919050565b6000602082019050818103600083015261417c81613c3c565b9050919050565b6000602082019050818103600083015261419c81613c5f565b9050919050565b600060208201905081810360008301526141bc81613c82565b9050919050565b600060208201905081810360008301526141dc81613ca5565b9050919050565b600060208201905081810360008301526141fc81613cc8565b9050919050565b6000602082019050818103600083015261421c81613ceb565b9050919050565b6000602082019050818103600083015261423c81613d0e565b9050919050565b6000602082019050818103600083015261425c81613d31565b9050919050565b6000602082019050818103600083015261427c81613d77565b9050919050565b6000602082019050818103600083015261429c81613d9a565b9050919050565b600060208201905081810360008301526142bc81613dbd565b9050919050565b600060208201905081810360008301526142dc81613de0565b9050919050565b600060208201905081810360008301526142fc81613e03565b9050919050565b6000602082019050818103600083015261431c81613e26565b9050919050565b6000602082019050818103600083015261433c81613e6c565b9050919050565b6000602082019050818103600083015261435c81613e8f565b9050919050565b6000602082019050818103600083015261437c81613eb2565b9050919050565b6000602082019050818103600083015261439c81613ed5565b9050919050565b600060208201905081810360008301526143bc81613ef8565b9050919050565b60006020820190506143d86000830184613f2a565b92915050565b60006040820190506143f36000830185613f2a565b61440060208301846139e2565b9392505050565b6000614411614422565b905061441d8282614712565b919050565b6000604051905090565b600067ffffffffffffffff8211156144475761444661484a565b5b61445082614879565b9050602081019050919050565b600067ffffffffffffffff8211156144785761447761484a565b5b61448182614879565b9050602081019050919050565b6000819050602082019050919050565b600081519050919050565b600081519050919050565b600081519050919050565b6000602082019050919050565b600082825260208201905092915050565b600082825260208201905092915050565b600081905092915050565b600082825260208201905092915050565b600081905092915050565b600061452082614694565b915061452b83614694565b9250827fffffffffffffffffffffffffffffffffffffffffffffffffffffffffffffffff038211156145605761455f6147bd565b5b828201905092915050565b600061457682614694565b915061458183614694565b925082614591576145906147ec565b5b828204905092915050565b60006145a782614694565b91506145b283614694565b9250817fffffffffffffffffffffffffffffffffffffffffffffffffffffffffffffffff04831182151516156145eb576145ea6147bd565b5b828202905092915050565b600061460182614694565b915061460c83614694565b92508282101561461f5761461e6147bd565b5b828203905092915050565b600061463582614674565b9050919050565b60008115159050919050565b60007fffffffff0000000000000000000000000000000000000000000000000000000082169050919050565b600073ffffffffffffffffffffffffffffffffffffffff82169050919050565b6000819050919050565b82818337600083830152505050565b60005b838110156146cb5780820151818401526020810190506146b0565b838111156146da576000848401525b50505050565b600060028204905060018216806146f857607f821691505b6020821081141561470c5761470b61481b565b5b50919050565b61471b82614879565b810181811067ffffffffffffffff8211171561473a5761473961484a565b5b80604052505050565b600061474e82614694565b91507fffffffffffffffffffffffffffffffffffffffffffffffffffffffffffffffff821415614781576147806147bd565b5b600182019050919050565b600061479782614694565b91506147a283614694565b9250826147b2576147b16147ec565b5b828206905092915050565b7f4e487b7100000000000000000000000000000000000000000000000000000000600052601160045260246000fd5b7f4e487b7100000000000000000000000000000000000000000000000000000000600052601260045260246000fd5b7f4e487b7100000000000000000000000000000000000000000000000000000000600052602260045260246000fd5b7f4e487b7100000000000000000000000000000000000000000000000000000000600052604160045260246000fd5b6000601f19601f8301169050919050565b7f43616e206f6e6c79206d696e74206f6e65206f72206d6f726520746f6b656e7360008201527f20617420612074696d6500000000000000000000000000000000000000000000602082015250565b7f455243373231456e756d657261626c653a206f776e657220696e646578206f7560008201527f74206f6620626f756e6473000000000000000000000000000000000000000000602082015250565b7f4552433732313a207472616e7366657220746f206e6f6e20455243373231526560008201527f63656976657220696d706c656d656e7465720000000000000000000000000000602082015250565b7f4f776e61626c653a206e6577206f776e657220697320746865207a65726f206160008201527f6464726573730000000000000000000000000000000000000000000000000000602082015250565b7f4552433732313a20746f6b656e20616c7265616479206d696e74656400000000600082015250565b7f596f7520617265206e6f74206f6e207468652050726573616c65204c69737400600082015250565b7f53616c65206d7573742062652061637469766520746f206d696e7420546f6b6560008201527f6e00000000000000000000000000000000000000000000000000000000000000602082015250565b7f4552433732313a207472616e7366657220746f20746865207a65726f2061646460008201527f7265737300000000000000000000000000000000000000000000000000000000602082015250565b7f4552433732313a20617070726f766520746f2063616c6c657200000000000000600082015250565b7f45746865722076616c75652073656e74206973206e6f7420636f727265637400600082015250565b7f4552433732313a206f70657261746f7220717565727920666f72206e6f6e657860008201527f697374656e7420746f6b656e0000000000000000000000000000000000000000602082015250565b7f4552433732313a20617070726f76652063616c6c6572206973206e6f74206f7760008201527f6e6572206e6f7220617070726f76656420666f7220616c6c0000000000000000602082015250565b7f4552433732313a2062616c616e636520717565727920666f7220746865207a6560008201527f726f206164647265737300000000000000000000000000000000000000000000602082015250565b7f4552433732313a206f776e657220717565727920666f72206e6f6e657869737460008201527f656e7420746f6b656e0000000000000000000000000000000000000000000000602082015250565b7f507572636861736520776f756c6420657863656564206d617820737570706c7960008201527f206f6620746f6b656e7300000000000000000000000000000000000000000000602082015250565b7f4552433732313a206d696e7420746f20746865207a65726f2061646472657373600082015250565b7f4552433732313a20617070726f76656420717565727920666f72206e6f6e657860008201527f697374656e7420746f6b656e0000000000000000000000000000000000000000602082015250565b7f2e6a736f6e000000000000000000000000000000000000000000000000000000600082015250565b7f4f776e61626c653a2063616c6c6572206973206e6f7420746865206f776e6572600082015250565b7f43616e27742061646420746865206e756c6c2061646472657373000000000000600082015250565b7f507572636861736520776f756c6420657863656564206d617820737570706c7960008201527f206f6620746f6b656e0000000000000000000000000000000000000000000000602082015250565b7f4552433732313a207472616e73666572206f6620746f6b656e2074686174206960008201527f73206e6f74206f776e0000000000000000000000000000000000000000000000602082015250565b7f4552433732314d657461646174613a2055524920717565727920666f72206e6f60008201527f6e6578697374656e7420746f6b656e0000000000000000000000000000000000602082015250565b7f4552433732313a20617070726f76616c20746f2063757272656e74206f776e6560008201527f7200000000000000000000000000000000000000000000000000000000000000602082015250565b50565b7f4552433732313a207472616e736665722063616c6c6572206973206e6f74206f60008201527f776e6572206e6f7220617070726f766564000000000000000000000000000000602082015250565b7f455243373231456e756d657261626c653a20676c6f62616c20696e646578206f60008201527f7574206f6620626f756e64730000000000000000000000000000000000000000602082015250565b7f50726573616c65206973206e6f74206163746976650000000000000000000000600082015250565b7f50757263686173652065786365656473206d617820616c6c6f77656400000000600082015250565b7f43616e6e6f742070757263686173652074686973206d616e7920746f6b656e73600082015250565b614fe78161462a565b8114614ff257600080fd5b50565b614ffe8161463c565b811461500957600080fd5b50565b61501581614648565b811461502057600080fd5b50565b61502c81614694565b811461503757600080fd5b5056fea2646970667358221220fa765d37a8e158851b524f66f2f8a6bd3827cba43650e67ccb7752b98508019664736f6c63430008040033697066733a2f2f516d59716a45315135524b6850374d773759476f594d567952636434346e67736541386364537453613535627167",
  "linkReferences": {},
  "deployedLinkReferences": {}
}